:100000000C942A000C9447000C9447000C94470071
:100010000C9447000C9447000C9447000C94470044
:100020000C9447000C9447000C9447000C94470034
:100030000C9447000C9447000C9447000C94470024
:100040000C9447000C9447000C9447000C94470014
:100050000C94470011241FBECFE5D8E0DEBFCDBF12
:1000600010E0A0E6B0E0E8E3F6E002C005900D92F3
:10007000A23FB107D9F720E0A2EFB0E001C01D9286
:10008000AC3FB207E1F70E94E1020C941A030C9412
:100090000000A29AAA982FEF89EF90E021508040AB
:1000A0009040E1F700C00000AA9A0895A2989A999A
:1000B000FECF9A9BFECF9A99FECF089588E090E0FC
:1000C0009A9BFECF20EA2A95F1F79A9B07C02091D0
:1000D000F200220F21602093F20005C02091F2006F
:1000E000220F2093F2009A99FECF019749F7809151
:1000F000F20008950E9449000E9456000E945E008E
:100100008093FA000E945E008093F3000E945E00DC
:100110008093F9000E945E008093FB000E945E00C5
:100120008093F4004091F90050E09091FA00209102
:10013000F30030E0290F311D240F351F9091FB0093
:10014000290F311D90E02817390711F04FEF5FEFAD
:10015000CA0108958EEF8ABB87E886B9089580E4C6
:1001600087B9369A349BFECF349A84B195B10895FD
:100170000E94AA000E94AF002FEF89E698E121506B
:1001800080409040E1F700C00000F4CF82E680B9E3
:1001900084E086BF11B8089584EA86BF06B607FEDC
:1001A000FDCF089583B984E886BF06B607FEFDCF6C
:1001B0000895992354F4089521503109E9F74F5FC8
:1001C0005F4F841795071CF4089540E050E029E73D
:1001D00030E0F2CF199A84E886BF06B607FEFDCF5D
:1001E00081E090E00E94D900199884E886BF06B6A5
:1001F00007FEFDCF0895189894E896BF06B607FE4F
:10020000FDCF93B19F7093B994E896BF06B607FEF1
:10021000FDCF93B1807F892B83B984E886BF06B672
:1002200007FEFDCF0E94EA000895CF93C82F1898CB
:1002300084E886BF06B607FEFDCF83B18F7083B911
:1002400084E886BF06B607FEFDCF83B19C2F907F62
:10025000892B83B984E886BF06B607FEFDCF0E94CE
:10026000EA0083B18F7083B984E886BF06B607FEC3
:10027000FDCF23B130E1C39FC0011124822B83B98C
:1002800084E886BF06B607FEFDCF0E94EA00CF9144
:10029000089580E30E94FB0080E30E94FB0080E25F
:1002A0000E94FB0088E20E9415018CE00E9415016B
:1002B00081E00E94150186E00E94150180E80E94FD
:1002C00015010895CF93C82F189A84E886BF06B603
:1002D00007FEFDCF83B18F7083B984E886BF06B671
:1002E00007FEFDCF83B19C2F907F892B83B984E8D3
:1002F00086BF06B607FEFDCF0E94EA0083B18F706D
:1003000083B984E886BF06B607FEFDCF23B130E18E
:10031000C39FC0011124822B83B984E886BF06B62F
:1003200007FEFDCF0E94EA00CF910895CF93DF939F
:10033000EC018881882331F021960E946201899125
:100340008111FBCFDF91CF91089581E00E941501CB
:1003500080E80E94150180E690E00E94960180EC02
:100360000E9415018FE690E00E949601089581E0B9
:100370000E94150180E80E9415018BE790E00E9421
:10038000960180EC0E94150188E890E00E94960199
:1003900085EF90E00E94960184E990E00E9496012A
:1003A0002FEF85EA9EE0215080409040E1F700C0A9
:1003B00000000E94A501089581E00E94150186E9D0
:1003C00090E00E94960180EC0E94150184EA90E082
:1003D0000E9496012FEF81EE94E0215080409040E2
:1003E000E1F700C0000008956F927F928F929F9274
:1003F000AF92BF92CF92DF92EF92FF920F931F9333
:10040000CF93DF930E94C6000E94CC0080E70E9439
:10041000D2000E94490184E0E5EFF0E0DF011D9287
:100420008A95E9F780E80E94150185EB90E00E942B
:10043000960180EC0E94150185EC90E00E949601E7
:10044000BFEF21EE84E0B15020408040E1F700C0D2
:100450000000612C712C0E94DC0120B390B380B3AA
:1004600096959170C92F90E0D92F82FB002700F953
:1004700010E0CE01802B912B20FB882480F8912C5A
:1004800088299929892B49F3809B42C081E00E94E9
:10049000150180E80E94150180E690E00E94960117
:1004A0000E947A008F3FAFEF9A0729F480ED90E029
:1004B0000E9496010BC04AE0B3010E94E502C3010D
:1004C0000E94960186ED90E00E94960180EC0E94C9
:1004D00015018FE690E00E9496010E947A008F3FFE
:1004E000BFEF9B0729F480ED90E00E9496010BC0BE
:1004F0004AE0B3010E94E502C3010E94960188ED23
:1005000090E00E949601829BFECF8299A4CF4AC0C0
:10051000819B46C0C0E0D0E020B390B380B391FB94
:10052000EE24E0F8F12C82FBCC24C0F8D12CC701DA
:100530008C299D2920FBAA24A0F8B12C8A299B296B
:10054000892B51F3809B02C0219606C0819B04C079
:10055000219712F4C0E0D0E04AE065EF70E0CE01F0
:100560000E94E50281E00E94150180E80E941501C9
:100570008AED90E00E94960180EC0E9415018BEEBE
:1005800090E00E94960185EF90E00E94960188EE2F
:1005900090E00E949601829BBFCF0E94B70102C0EB
:1005A000829959CFDF91CF911F910F91FF90EF90DA
:1005B000DF90CF90BF90AF909F908F907F906F9083
:1005C00008950E94F4010E94B800BB274A3031F41C
:1005D000992322F4BDE2909581959F4F0C94F102EE
:1005E000BB27FB015527AA27880F991FAA1FA4170D
:1005F00010F0A41B83955051B9F7A05DAA3308F001
:10060000A95DA193009779F7B111B1931192CB0134
:100610000C940A03DC01FC01672F71917723E1F749
:10062000329704C07C916D9370836291AE17BF07BF
:08063000C8F30895F894FFCF10
:1006380054656D7065726174757265203D2000485F
:10064800756D6964697479203D20005261636B207F
:10065800537461727465640054696D6520456E64F5
:1006680073203A004800202053656C656374204D60
:100678006F646500312E4175746F2020322E4D61F4
:100688006E75616C004175746F6D617465642043AB
:100698006C6F7468002020202020205261636B005A
:1006A8004552524F52004300250053657420576F3E
:1006B800726B2054696D650048202020202020207E
:0206C800200010
:04000003000003E80E
:00000001FF
